:0200000480007A
:1000000073700430735040309711001093818185D4
:1000100017010110130101FF970200009382021CD7
:100020007390523073F05130170500001305C50866
:1000300097050000938545086300B5021726000068
:10004000130606E963FAC5008322050023A05500C4
:1000500011059105E3EAC5FE17250000130545E7E4
:1000600097050010938505FA1386418163FAC50050
:100070008322050023A0550011059105E3EAC5FE82
:1000800013854181938581946377B5002320050012
:100090001105E36DB5FE1D261715000013058581BA
:1000A000EF007000EF0030044D2E0145814519200E
:0400B000412901A041
:1000B400372701101C43011122CC26CA4AC84EC658
:1000C40006CE93E71700014497290000938989BE5F
:1000D4001CC337290110B7949800A2854E85EF0000
:1000E40030060504937714002324F90093871468D9
:1000F400FD17FDFFDDB7A54723AAF1807D5582805A
:100104007D15854763E6A7008967DCC101458280C8
:10011400A54723AAF1807D5582800545828001454B
:10012400828019C17D55828041113735011022C466
:1001340006C62E84A52A2300A400B2402244054505
:100144004101828017070010130787F11C4393862F
:1001540081943E95636BD50097F600109386466AAA
:1001640063E5A60008C33E858280FD573E858280F4
:10017400011122CC4EC606CE26CA4AC82E84B289A4
:10018400EF00D00D29C533093401A944639909004E
:100194003DA0050437350110012263022403834581
:1001A4000400E39895FEB54537350110F5208345E5
:1001B4000400373501100504C520E31224FF4E85E1
:1001C400F2406244D2444249B249056182807D557D
:1001D400C5BF00005D7106C012C216C41AC61EC88F
:1001E4002ACA2ECC32CE36D03AD23ED442DC46DEB7
:1001F400F2C0F6C2FAC4FEC6F322103416D6F322B5
:10020400203416D8F322003016DA732520348A8578
:100214005D2AB25273901234C25273902234D25275
:100224007390023082401242A2423243C24352458A
:10023400E245724682561257A2576258F258064E49
:10024400964E264FB64F616173002030AA8711C5C0
:10025400584D0145D98DCCCF82807D558280AA87A7
:1002640015C9170700100327E7DFB355B7021307B3
:10027400000858C50145FD1513D785001377F70FFE
:10028400D8C393F5F50F8CC31307600C98C70D47BB
:10029400D8C782807D55828001C95C4993F70702E3
:1002A400EDDF0CC1014582807D55828001C95C4926
:1002B400858BF5DF08411375F50F82801305F00F68
:1002C4008280B7C7000203A787FF83A7C7FF411136
:1002D40006C622C426C2BA86B7C5000203A785FF94
:1002E40083A7C5FFBA87732600B0E389E6FEB7C6C5
:1002F400000203A486FF83A4C6FF1D8C732700B0ED
:10030400E369A4FEB304C740B3F5840222868146A0
:100314001395F500C581352433D78402B2402244B5
:10032400924441013E073A9582804111054506C633
:10033400493FB24013054006410161B7411122C44F
:100344002A84172500001305658A06C62127A2857D
:10035400172500001305C58AE523F3251034172556
:1003640000001305E58AE92BF32530341725000036
:100374001305058BF12301A0411122C42A841725FA
:1003840000001305E58A06C6F125A285172500009D
:10039400130505877523F32510341725000013056D
:1003A4002587792BF32530342244B24017250000E9
:1003B40013050587410169A3B7B7C40493870740B0
:1003C40023A2F180828041119317450106C622C4FD
:1003D400D183635105022D476383E7048A0713879A
:1003E4004182BA979C4391C38297B240224401450B
:1003F4004101828029462A87AE86636BF6008A070C
:100404001386C184B2979C43EDD3B6853A85E9BF80
:10041400970700009387C7F2B6853A85F1B7F327AB
:1004240040F13707200CB2071107BA978043C14740
:10043400E3ED87FA1317240093878187BA979C43C7
:1004440091C38297F32740F13707200CB2071107B5
:10045400BA9780C359BF411106C622C4F935AA8789
:1004640013844180B7050300372501101CC0F93BF4
:10047400F1659385052037350110D5331716000033
:100484001306467C971500009385857C171500009C
:100494001305C57C7521971500009385A57E171556
:1004A40000001305657E69290C401715000013052B
:1004B400E57E792197060000938686E89387C184B8
:1004C4001387818794C39107E39EE7FE1707000013
:1004D4001307C7EA938781879386C18B98C39107D3
:1004E400E39EF6FE938741829386C18498C3910765
:1004F400E39ED7FE3706000C8146B728000C05485A
:100504004545F32740F19E07C6978C433317D8001F
:100514001347F7FF6D8F98C3232006008506110645
:10052400E391A6FEF32740F13707200CB2402244A2
:10053400B207BA9723A0070041018280828082809B
:100544008280AA88AE8732883685468363960620E1
:10055400971600009386467863FFC50A4167637562
:10056400E60A1307F00F3337C7000E073355E600CA
:10057400AA9683C60600130500023697B306E54023
:10058400630BE500B395D70033D7E8003318D600E2
:10059400D98D3393D80093580801B3D61503131695
:1005A400080141829357030133F715033685B305D8
:1005B400D6024207D98F63FCB700C2971385F6FFB2
:1005C40063E7070163F5B7001385E6FFC2978D8FD4
:1005D40033F71703420313530301B3D71703420737
:1005E40033636700B306F6023E86637BD30042930F
:1005F4001386F7FF636603016374D3001386E7FF72
:100604004205518D81455DA8370500014147E36FDF
:10061400A6F46147A1BF01E605473358C702416705
:10062400637FE8081307F00F63730701214533570D
:10063400A800BA9603C70600130600022A97B30659
:10064400E6406315E608B3870741854593580801DA
:1006540013160801418213570301B3F61703B3D7E6
:100664001703C206558F330EF6023E85637CC7011D
:1006740042971385F7FF636707016375C701138505
:10068400E7FF42973307C741B37717034203135376
:10069400030133571703C20733E36700B306E602C7
:1006A4003A86637BD30042931306F7FF6366030124
:1006B4006374D3001306E7FF4205518D8280370728
:1006C40000014145E365E8F6614595B73318D80064
:1006D40033D5E7003393D800B397D70033D7E80076
:1006E400935808013366F70033771503931708010D
:1006F400C183935506013355150342074D8FB386C5
:10070400A702AA85637CD70042979305F5FF636728
:1007140007016375D7009305E5FF4297B306D740F9
:1007240033F7160342064182B3D6160342073385D4
:10073400D702B367C700368763FCA700C297138745
:10074400F6FF63E7070163F5A7001387E6FFC29787
:10075400C205898FD98DDDBD63E2D514416763FF7E
:10076400E6021307F00FB335D7008E0533D5B60074
:1007740017170000130747562A9703470700130566
:1007840000022E97B305E5406311E5020545E3E752
:10079400F6F233B5C800134515000DB7370700014D
:1007A400C145E3E5E6FCE145D1B73358E600B3962D
:1007B400B6003368D80033D3E700935E0801B376FC
:1007C400D303B397B70033D7E800331EB6003366BC
:1007D400F70093170801C183135706013353D3035A
:1007E400C206558F338F67021A85637CE7014297EF
:1007F4001305F3FF636707016375E7011305E3FF5F
:1008040042973307E741B376D7033357D703C2067A
:100814003383E70293170601C183D58F3A8663FCBD
:100824006700C2971306F7FF63E7070163F56700E4
:100834001306E7FFC2974205C16E518D9386FEFFF2
:1008440013560E0113580501B38767403373D5005F
:10085400B376DE00330ED302B306D80213570E016B
:100864003303C30236931A973308C8026373D7005D
:10087400769893560701369863E00703E39407D903
:10088400C167FD177D8F4207337EFE00B398B80021
:1008940072978145E3F4E8E27D15ADB381450145E6
:1008A40031BDAA85814601460145B5AE411122C438
:1008B40026C2171400001304646197140000938483
:1008C400E460058C06C6098411E4B24022449244D3
:1008D400410182807D1493172400A6979C4382973C
:1008E400E5B7411122C426C2171400001304045EA4
:1008F400971400009384845D818C4AC006C6898461
:10090400014963159902171400001304245C971419
:1009140000009384A45B818C89840149631D990040
:10092400B240224492440249410182801C4005099C
:1009340011048297F9B71C40050911048297F9BF85
:100944005D7122D406D62A842EDA32DC36DEBAC0B1
:10095400BEC2C2C4C6C603A5818011C51C4D81E7B1
:100964002AC6612B32450C455418228636CEEF0038
:10097400D026B250225461618280011126CA4AC82D
:1009840006CE22CC4EC652C4AA842E8901C51C4D63
:1009940091E3A5239C4C804499E32685B92B9717B2
:1009A400000093876745631CF402C0408357C4006A
:1009B400A18BB1C71C48A1C7FD59294A1C448345D2
:1009C4000900FD17B1E91CC463DE07062286A945A8
:1009D40026857920FD576308F502294535A0971728
:1009E4000000938767436314F4008044C1B79717EA
:1009F40000009387673EE31BF4FAC04445BFA28519
:100A04002685392A55D97D55F2406244D24442495B
:100A1400B249224A056182801CC4050963D70700D4
:100A2400184C63CBE700638945011C40138717000A
:100A340018C02380B70059B7228626851520E31FE6
:100A440035F7D1B71C401387170018C029472380F6
:100A5400E70061B7AA8503A5818005B76FF0EFEBC6
:100A6400011122CC26CA4AC806CE4EC6AA842E89B3
:100A7400328401C51C4D91E34921971700009387E7
:100A8400A7376319F406C0401C4C1CC48357C40028
:100A9400A18BC9C31C48BDCF1C4808409379F90FEA
:100AA4001379F90F1D8D5C486346F500A2852685F0
:100AB400052E2DE51C440505FD171CC41C40138799
:100AC400170018C0238037015C486389A700835747
:100AD400C400858B81CBA9476316F900A2852685BE
:100AE40001260DEDF2406244D244B2494A8542499E
:100AF4000561828097170000938707326314F4001E
:100B0400804459B7971700009387072DE31EF4F626
:100B1400C0449DBFA285268521203DDD7D59D9B7DE
:100B2400411122C426C24AC006C683A481802A89F0
:100B34002E8489C49C4C99E32685C126971700000E
:100B44009387872B6317F402C0408317C40013975D
:100B5400070193F687004183ADEA9376070195EA8E
:100B640025472320E90093E707042316F4007D5565
:100B740071A8971700009387272A6314F400804410
:100B8400E9B79717000093872725E310F4FCC044C6
:100B94006DBF118B0DC74C5889C9930744046384F6
:100BA400F5004A85B12D232A04028357C400232269
:100BB400040093F7B7FD2316F4001C481CC08357A8
:100BC400C40093E787002316F4001C4881EF835781
:100BD400C4001307002093F707286385E700A28564
:100BE4004A85E9298317C4001397070193F6170070
:100BF40041839DC2544823240400B306D04014CC3E
:100C04001448014581E61377070831FFB2402244B6
:100C1400924402494101828093762700014691E281
:100C2400504810C4F1BFAA88138581811C4181EF0B
:100C34001387C18B18C113050000BA8709C51C416D
:100C44002324F708BA87D8437D487D556346E804D2
:100C5400638D080203A8870863000804131527009E
:100C6400429510C10323081005463316E60033638A
:100C7400C300232068102320D50889466397D80031
:100C840083264810558E2322C810930617000A079E
:100C9400D4C3BA978CC70145828083D7C50001119C
:100CA40022CC26CA06CE4AC84EC613F78700AA84A9
:100CB4002E8475E3D8416347E000B8416344E00003
:100CC400014575A858546DDF856603A90400F58FA6
:100CD40023A00400A5CF68488357C400918B99C70B
:100CE4005C401D8D5C5899C33C401D8D5C540C5078
:100CF4002A86814626858297FD570357C400631DC3
:100D0400F5009440F54763E3D708B707402085070B
:100D1400B3D7D700858BBDCB1C48232204001CC04D
:100D240085677D8F19C7FD576314F5009C4091E3D7
:100D340068C84C5823A02401C1D593074404638494
:100D4400F50026857529232A04029DBF0C5085468B
:100D5400014626850297FD57E310F5F89C40ADDF68
:100D640075476385E70059476395E70023A024018D
:100D740081BF8357C40093E707042316F400F240AD
:100D84006244D2444249B249056182801367070430
:100D94002316E400EDB783A90501E38309F203A94F
:100DA40005008D8B23A0350133093941014791E3B7
:100DB400D84918C4E35620F11C540C50CA864E86F8
:100DC40026858297634AA0008357C4007D5593E724
:100DD40007042316F40065B7AA993309A940D9BFBB
:100DE4009C49B9CF011122CC06CE2A8411C51C4DD1
:100DF40081E72EC61922B245971700009387C7FFD3
:100E0400639BF5004C408397C50095C722856244D7
:100E1400F240056159B5971700009387E7FF639483
:100E2400F5000C44CDB7971700009387E7FAE39CCD
:100E3400F5FC4C44C9BFF24062440145056182801F
:100E440001458280411122C406C62A842316B500B6
:100E54002317C500232005002322050023240500B1
:100E64002322050623280500232A0500232C050038
:100E7400214681451305C505C524971700009387AE
:100E8400C7815CD097170000938727841CD49717D9
:100E94000000938767885CD4971700009387278B9B
:100EA400B24000D01CD82244410182809705000042
:100EB400938545F391A2411126C2130680069384BB
:100EC400F5FFB384C4024AC02E8922C406C69385A2
:100ED4004407F1262A8419C9232005002322250169
:100EE400310508C4138684068145BD24B240228599
:100EF400224492440249410182801C4DADE34111D8
:100F040022C406C697070000938787FA1CD52324BA
:100F14000504232605042328050483A701812A84C4
:100F24006314F50085471CCD22851D2848C0228501
:100F3400052808C422852D2048C44840014691450F
:100F4400113708440546A545F53D48440946C945B9
:100F5400D53D8547B2401CCC224441018280828029
:100F6400411126C283A401819C4C4AC006C622C4F6
:100F74002A8999E326855137938484048044DC408C
:100F8400FD1763D607009C40B1CF8440C5BF03174B
:100F9400C40031E7C1778507232204062320040017
:100FA40023220400232404005CC423280400232AED
:100FB4000400232C0400214681451305C405692A35
:100FC400232A0402232C04022324040423260404D5
:100FD400B240228522449244024941018280130492
:100FE400840679BF91454A85F93588C02A8451FD24
:100FF400B1472320F900E9BF797122D44AD04ECEFB
:1010040052CC5AC85EC606D626D256CA2A892E8A19
:10101400130485048149054BFD5B0444832A440081
:10102400FD1A63D00A0200406DF8B2502254925463
:101034000259624AD24A424BB24B4E85F24945614B
:10104400828083D7C400637BFB008397E4006387BB
:101054007701A6854A85029AB3E9A9009384840698
:10106400C1B75971CAD02E898395E500A2D4A6D2FE
:1010740086D63284B68463DC05008317C90023A0B6
:10108400040093F707088DE39307004005A03000A0
:10109400112FE34405FE3247BD67F98F7977BA977C
:1010A40093B717009CC0CDB793070004B6501CC07B
:1010B40026549654065901456561828083D7C5003C
:1010C400011122CC06CE26CA4AC8898B2E8489CF28
:1010D400930774041CC01CC885475CC8F240624472
:1010E400D244424905618280740030002A89953FC8
:1010F400A245AA844A85652201ED8317C40013F72B
:10110400072069FFF19B93E727002316F400C9B772
:10111400970700009387C7D92324F9028357C40093
:1011240008C008C893E707082316F400A2475CC860
:10113400B24789CF8315E4004A85512D01C98357ED
:10114400C400F19B93E717002316F4000355C40071
:10115400C98C2316940059B73D432A876373C3028D
:101164009377F700BDEFADE5937606FF3D8ABA9617
:101174000CC34CC30CC74CC74107E36BD7FE11E249
:101184008280B306C3408A06970200009696678061
:10119400A6002307B700A306B7002306B700A305DC
:1011A400B7002305B700A304B7002304B700A303C3
:1011B400B7002303B700A302B7002302B700A301BB
:1011C400B7002301B700A300B7002300B700828053
:1011D40093F5F50F93968500D58D93960501D58DDE
:1011E40061B7939627009702000096968682E7805F
:1011F40086FA9680C1171D8F3E96E374C3F8A5B78F
:10120400D1CD83A7C5FF011122CC06CE1384C5FF1F
:1012140063D307003E942AC615251387C1811C4356
:10122400324581EB2322040000C36244F24005618D
:1012340039A5637DF4001040B306C4006396D7005B
:101244009443DC43B29614C05CC0F9BF3E87DC43D0
:1012540099C3E37DF4FE14433306D700631F86006D
:101264001040B29614C33306D700E390C7FC9043F2
:10127400DC43B29614C35CC34DBF6375C400B1476D
:101284001CC165B71040B306C4006396D7009443ED
:10129400DC43B29614C05CC040C341BF82800111DC
:1012A40026CA93843500F1984AC806CE22CC4EC68D
:1012B400A104B1472A8963F0F404B14463EFB40292
:1012C4004A85AD2B9386C18198423A8431E01384D8
:1012D40001821C4089E781454A85512E08C0A685B4
:1012E4004A857126FD5963183507B1472320F90053
:1012F4004A85B12331A0E3D304FCB1472320F9008C
:101304000145F2406244D2444249B24905618280B7
:101314001C40858F63CE07022D466376F6001CC001
:101324003E9404C029A05C40631287029CC24A8593
:1013340039231305B4009307440061993307F5403A
:10134400E301F5FC3A94898F1CC065BF5CC3C5B743
:1013540022874040A5BF130435007198E30385FC40
:10136400B305A4404A852126E31D35FBBDBF1C46B9
:10137400FD171CC663DA0700184E63C5E700A947CA
:101384006394F5006FF0CFED1C422E851387170090
:1013940018C22380B7008280011122CC26CA4AC811
:1013A4004EC652C406CE2A89AE893284B304D6000E
:1013B4007D5A63149400014509A8834504004E86B0
:1013C4004A8575370504E31645FFF2406244D2446A
:1013D4004249B249224A05618280357122CD26CB29
:1013E4004AC94EC706CF52C556C35AC1DEDEE2DC37
:1013F400E6DAAA89AE843289368401C51C4D91E3AC
:10140400ED3C971700009387279F639BF40C83A4FC
:10141400490083D7C400A18BF5C79C48E5C793074F
:101424000002A304F1029307000302D22305F10290
:1014340022C6930B5002971A0000938AEA9F054C28
:10144400294B4A848347040099C36390770FB30CF4
:101454002441630D2401E6864A86A6854E852D3FE8
:10146400FD576304F51E9257E6973ED28347040066
:10147400638D071CFD571309140002C802CE3ECA2F
:1014840002CCA309010482D483450900154656857C
:10149400492EC2471304190059E913F7070109C774
:1014A40013070002A309E10413F7870009C7130710
:1014B400B002A309E104834609001307A002638074
:1014C400E608F2474A84814625460347040093050B
:1014D4001400130707FD6379E60AB5CA3ECE85A852
:1014E40097170000938747936395F40083A48900BA
:1014F4000DB7971700009387278EE39CF4F083A41D
:10150400C90001BFA6854E85EFF08FE109D97D554D
:10151400FA406A44DA444A49BA492A4A9A4A0A4B7E
:10152400F65B665CD65C0D618280050421BF3305E1
:1015340055413315AC00C98F3EC82289B1B7324733
:1015440093064700184336C6634907023ACE034759
:1015540004009307E002631FF70403471400930792
:10156400A002631BF702B2470904138747009C4398
:101574003AC663C107023ECA35A83307E04093E781
:1015840027003ACE3EC8E1B7B38767032E84854669
:10159400BA9725BFFD57C5B7050402CA81468147DE
:1015A40025460347040093051400130707FD6374DD
:1015B400E606F1F2834504000D46171500001305F5
:1015C4002588852411CD97170000938767871D8D83
:1015D40093070004B397A700424505045D8D2AC80C
:1015E400834504001946171500001305A585130942
:1015F40014002304B10235242DC19307000095E79C
:101604004247B2471377071009CF91073EC6925756
:10161400D2973ED23DB5B38767032E848546BA97E9
:1016240049B79D07E19BA107D5B77800970600004D
:101634009386C6D626860C084E8597000000E700E0
:101644000000FD572A8AE314F5FC83D7C40093F7FE
:101654000704E39E07EA125565BD7800970600006B
:101664009386C6D326860C084E85CD24D9BF411156
:1016740022C42A842E8523AA018006C6EFE09FACEB
:10168400FD576316F50083A7418191C31CC0B24086
:10169400224441018280411122C42E848395E500B5
:1016A40006C6292B634905007C48AA977CC8B2402A
:1016B4002244410182808357C4007D777D17F98FCE
:1016C4002316F400EDB783D7C500011122CC26CA36
:1016D4004AC84EC606CE93F70710AA842E843289D0
:1016E400B68991C78395E500894601462922835727
:1016F400C4007D777D17F98F8315E4002316F40069
:101704006244F240CE864A86B24942492685D24492
:1017140005613DA8411122C42E848395E50006C6C7
:10172400D928FD570357C400631BF500FD77FD1747
:10173400F98F2316F400B240224441018280856768
:10174400D98F2316F40068C8FDB78395E5003DA042
:10175400411122C42A842E85B285368623AA0180AB
:1017640006C6EFE0FFA0FD576316F50083A741818D
:1017740091C31CC0B240224441018280411122C461
:101784002A842E8523AA018006C6EFE0DF96FD5742
:101794006316F50083A7418191C31CC0B240224463
:1017A40041018280411122C42A842E85B28523AA54
:1017B400018006C6EFE0DF94FD576316F50083A7AA
:1017C400418191C31CC0B240224441018280411135
:1017D40022C42A842E8523AA018006C6EFE0FF9343
:1017E400FD576316F50083A7418191C31CC0B24025
:1017F400224441018280411122C42A842E85B2856B
:10180400368623AA018006C6EFE07F91FD57631652
:10181400F50083A7418191C31CC0B2402244410119
:10182400828093F5F50F2A966314C50001458280E2
:1018340083470500E38DB7FE0505FDB782808280EE
:10184400797152CC9C493A8A984522D426D24ECEFC
:1018540056CA06D64AD05AC85EC6AA892E84B2840D
:10186400B68A63D3E700BA879CC00347340419C31C
:1018740085079CC01C4093F7070281C79C408907D9
:101884009CC00329040013796900631A0900130B2F
:101894009401FD5B5C449840998F634CF904834741
:1018A4003404B336F0001C4093F70702A5EB13068B
:1018B4003404D6854E85029AFD576303F5041C4013
:1018C40011469840998B544481446397C700B3846C
:1018D400E64063D3040081441C4418486354F70071
:1018E400998FBE94014969047D5B63982405014581
:1018F40009A885465A86D6854E85029A631E7501C7
:101904007D55B250225492540259F249624AD24A45
:10191400424BB24B456182800509ADBF3307D40009
:1019240013060003A301C704034754049387160056
:10193400A2978906A381E7049DBF85462286D685A2
:101944004E85029AE30E65FB050945B7797122D4E9
:1019540026D24AD04ECE06D652CC56CA5AC803C84E
:10196400850193078007AA842E843289B68963EEA1
:101974000701930720069386350463ED0701630589
:10198400081C93078005630AF812930A24042301B0
:10199400040515A89307D8F993F7F70F5546E3669E
:1019A400F6FE170600001306E64C8A07B2979C431E
:1019B400B29782871C43938A2504938647009C43ED
:1019C40014C32381F50485475DA29C41084313F6A3
:1019D4000708930545000DC21C410CC363D80700DA
:1019E4001307D002B307F040A301E4041706000074
:1019F4001306C6452948A1A013F607041C410CC3CD
:101A040071DEC207C187D9BF90411C431375060814
:101A14009385470001C50CC39C4339A01376060483
:101A24000CC37DDA83D707001307F00617060000FE
:101A34001306C6416304E80E2948A3010404584070
:101A440018C4634507000C40ED990CC099E3B68AAD
:101A540019CFB68A33F70703FD1A329703470700F5
:101A64002380EA003E87B3D70703E37507FFA14746
:101A7400631EF8001C40858B91CB58401C4863C7FB
:101A8400E70093070003A38FFAFEFD1AB3865641BD
:101A940014C84E87CA867000A285268555337D5AA0
:101AA400631B450D7D55B250225492540259F2499C
:101AB400624AD24A424B45618280A38205051706D9
:101AC40000001306A6380C40084313F805081C410F
:101AD4001105630D080208C313F7150001C793E548
:101AE40005020CC04148B1FB18401377F7FD18C03C
:101AF400A9B79C4193E707029CC193078007A302FF
:101B0400F404170600001306A63575BF13F8050480
:101B140008C3E30308FCC207C1837DBF214831BF6A
:101B240090411C43CC49137806081385470063068B
:101B3400080008C39C438CC301A808C31376060499
:101B44009C4375DA2390B70023280400B68A91B722
:101B54001C43D04181459386470014C383AA0700E0
:101B64005685C13101C53305554148C05C401CC888
:101B7400A301040439BF14485686CA852685829970
:101B8400E30245F31C40898B8DE7B2474844E35C8C
:101B9400F5F03E8509BF85465686CA852685829915
:101BA400E30265F1050A5C443247998FE345FAFE86
:101BB400E9BF014A930A94017D5BF5B7411122C440
:101BC4002A842E85B285368623AA018006C6EFE0D4
:101BD4004FD5FD576316F50083A7418191C31CC0FF
:081BE400B2402244410182805D
:101BEC005472617020696E20457863657074696FFA
:101BFC006E0D00004D43415553453A203078256C0D
:101C0C00780D0A004D45504320203A203078256C41
:101C1C00780D0A004D5456414C203A203078256CF2
:101C2C00780D0A005472617020696E20496E7465DB
:101C3C0072727570740D000032303A33373A3037A7
:101C4C0000000000536570203138203230323600ED
:101C5C0048756D6D696E67426972642053444B2000
:101C6C004275696C642054696D653A2025732C208B
:101C7C0025730D0A00000000494C4D00446F776E2F
:101C8C006C6F6164204D6F64653A2025730D0A00FA
:101C9C00435055204672657175656E637920256CCD
:101CAC007520487A0D0A000025643A2048656C6C52
:101CBC006F205A796E71373031302C204C454430BE
:101CCC0020746F67676C650D0A000000000102024A
:101CDC0003030303040404040404040405050505B8
:101CEC000505050505050505050505050606060694
:101CFC000606060606060606060606060606060678
:101D0C000606060606060606060606060707070763
:101D1C000707070707070707070707070707070747
:101D2C000707070707070707070707070707070737
:101D3C000707070707070707070707070707070727
:101D4C000707070707070707070707070808080813
:101D5C0008080808080808080808080808080808F7
:101D6C0008080808080808080808080808080808E7
:101D7C0008080808080808080808080808080808D7
:101D8C0008080808080808080808080808080808C7
:101D9C0008080808080808080808080808080808B7
:101DAC0008080808080808080808080808080808A7
:101DBC000808080808080808080808080808080897
:101DCC0008080808080808080808080800000000A7
:101DDC0000000000000000000000000000000000F7
:101DEC0000000000000000000000000000000000E7
:101DFC0000000000000000000000000000000000D7
:101E0C0000000000000000000000000000000000C6
:101E1C0000000000000000000000000000000000B6
:101E2C00000000000000000000000000232D302BFB
:101E3C0020000000686C4C00656667454647000052
:101E4C0030313233343536373839414243444546E4
:101E5C0000000000303132333435363738396162A6
:101E6C00636465660000000044FBFFFF5AFBFFFF44
:101E7C001AFBFFFF1AFBFFFF1AFBFFFF1AFBFFFF0A
:101E8C005AFBFFFF1AFBFFFF1AFBFFFF1AFBFFFFBA
:101E9C001AFBFFFFB0FCFFFF98FBFFFF82FCFFFF6C
:101EAC001AFBFFFF1AFBFFFFE0FCFFFF1AFBFFFF13
:101EBC0098FBFFFF1AFBFFFF1AFBFFFF8AFCFFFFDB
:101ECC0000000000F81D0080181E0080D81D008046
:101EDC0000000000000000000000000000000000F6
:101EEC0000000000000000000000000000000000E6
:101EFC0000000000000000000000000000000000D6
:101F0C0000000000000000000000000000000000C5
:101F1C0000000000000000000000000000000000B5
:101F2C00A801009000B4C404000000900000000060
:041F3C000000009011
:040000058000000077
:00000001FF
