:0200000480007A
:1000000073700430735040309711001093818185D4
:1000100017010110130101FF970200009382827CF7
:100020007390523073F051301705000013058509A5
:1000300097050000938505096300B5021736000097
:10004000130686E663FAC5008322050023A0550047
:1000500011059105E3EAC5FE173500001305C5E457
:1000600097050010938505FA1386418163FAC50050
:100070008322050023A0550011059105E3EAC5FE82
:1000800013854181974500109385C5B06377B5000E
:10009000232005001105E36DB5FEEF00F0121715E2
:1000A00000001305A5EBEF00906AEF00506EEF0023
:0E00B000901B014581452920EF00502901A039
:1000C0007971172500001305E52906D622D426D21A
:1000D0004AD04ECE52CC56CA5AC85EC662C4EF1041
:1000E0002002172500001305A52BEF106001A14584
:1000F000172500001305452DEF00506F9545172576
:1001000000001305A52DEF00706E172500001305E4
:10011000252FEF00F07EB7070040985BC167631999
:10012000F75C1725000013056530EF00707D17257B
:1001300000001305A530EF00B07C1728000013085D
:10014000F86E173600101306A6269738001093880D
:1001500028578147130540069305F00F130746FE05
:10016000C28621A083C706008506B387A7020507BC
:10017000B3C7B702A30FF7FEE316C7FE71067108F7
:10018000630516018347F8FFD1BF1725000013054B
:10019000A52CEF00F076F32400B09737001093877A
:1001A000671F171700101307E71E97360010938676
:1001B000664F03A80700C8438C47D0472320070198
:1001C00048C30CC750C7C1074107E394D7FE056970
:1001D000B707004023AA0702172800001308884128
:1001E0001947F145930809D8854795460546714555
:1001F000EF003016172400101304C419A28501471C
:10020000170F0010130FCFF1930E00091948614E1C
:10021000130309D83346070383C805008505B34691
:10022000D7033365070393971600B6978E07050724
:100230003366C60393163500AA969A06B697FA97C0
:10024000B29723801701E31767FC172500001305F9
:10025000E524EF00F06A973F0010938FAF44014F01
:10026000814E17090010130929ED9703001093839D
:10027000A31093020036B308D9017E83338ED301D5
:10028000138788FE1A85C6868305070003081700B2
:100290000386060083871600C2952E96B29789873B
:1002A0002300F500090789060505E31F17FD9308DC
:1002B00007033103E396C8FD130F0F09938F0F094E
:1002C000938E0E24E3195FFA172500001305851D90
:1002D000EF001063173500101305853D97180010C7
:1002E0009388A80B014813030009930545FF468630
:1002F0009307A6FF2E878346070085071307070984
:10030000A38FD7FEE319F6FE85051906E392A5FE35
:1003100031081385C50093888804E31868FCB70783
:1003200000401307A002D8DB172800001308082E8E
:100330004147194631459308004085479546B145E8
:10034000EF003001172600101306C604014713887A
:10035000C163130500409377F700935677408E07EB
:10036000B69783450600935647408E079D8AC297ED
:10037000B6972380B70005070506E31EA7FC1725DF
:1003800000001305A512EF00B0571739001013092C
:100390006967973E0010938EEE67938FC163014F9C
:1003A000114E9302000493880EFF7E831306830090
:1003B0009A86014703850600038816008305060018
:1003C000830716004295AA95AE978987B385E80002
:1003D0002380F500050789060906E31DC7FD91087E
:1003E0004103E3951EFD110FC10E938F0F04E31C13
:1003F0005FFA172500001305E50BEF007050171882
:100400000010130828FA01454143CA854286930823
:100410004900930706FF2E8783460700850741079B
:10042000A38FD7FEE31AF6FE85054106E39315FF79
:10043000110513080804630465002E89F9B7B7078E
:1004400000401307A028D8DB914685471307800793
:1004500093088007172800001308481F414691455C
:100460001145EF00006F972700109387A7F2171729
:1004700000101307E7E297260010938626F983A859
:10048000070003A847008847CC47904B232017015B
:100490002322070108C74CC710CBD1075107E390AF
:1004A000D7FE1725000013056501EF00704597176B
:1004B00000109387E7DE171700101307A7ED9716B4
:1004C0000010938666E583A8070003A847008847C5
:1004D000CC47904B232017012322070108C74CC7A4
:1004E00010CBD1075107E390D7FE8967370700404B
:1004F0009387A7085CDB854685471307400593086B
:100500004005172800001308686313068007854517
:1005100005458125972700109387C7E71717001017
:10052000130787DF972600109386C6EB03A8070002
:10053000C8438C47D0472320070148C30CC750C786
:10054000C1074107E394D7FE9C431725000013051C
:1005500065F81CC3EF00D03A971700109387C7DBEC
:1005600017170010130707E3971600109386C6DFCE
:1005700003A80700C8438C47D0472320070148C37E
:100580000CC750C7C1074107E394D7FE9C43172807
:1005900000001308A86FA9481CC38D6737070040E7
:1005A000938727A65CDB85468147294713064005CC
:1005B00085450545792B17190010130929DB1717F5
:1005C0000010130727DD4A88CA87830604009107B5
:1005D000050423AED7FEE31AF7FEF32700B0B38479
:1005E0009740732B00CCF32A10CC732A20CCF3292C
:1005F00030CC17170010130767D781458547014690
:100600002945B306C800832847009442110763D5E3
:100610001601BE85139627008507E394A7FE1725CC
:1006200000001305A5EBEF00701C17250000130553
:1006300065ECEF00F02C0144172C0000130C0CEDBE
:10064000A94B03260900A28562850504EF00101A54
:100650001109E31874FF17250000130565ECEF007E
:10066000302AA68517250000130585EDEF00101828
:10067000DA85172500001305E5EDEF003017D68564
:1006800017250000130545EEEF005016D2851725FB
:1006900000001305A5EEEF007015CE8517250000AC
:1006A000130545EFEF009014170400101304C49BCA
:1006B0000C4017250000130565EFEF0030131040C4
:1006C00001EA17250000130525F1EF00702301A0B2
:1006D0001305803EB3B5A40281463385A402012BE5
:1006E000AA85172500001305E5EDEF003010D1BFF6
:1006F00017250000130505D7EF00902001A0A5479E
:1007000023AAF1807D5582807D15854763E6A70089
:100710008967DCC101458280A54723AAF1807D5508
:100720008280054582800145828019C17D55828085
:1007300041113735011022C406C62E84B52A230084
:10074000A400B240224405454101828017070010F1
:10075000130747911C43973600109386A6433E9596
:10076000636BD50097F600109386C60963E5A60073
:1007700008C33E858280FD573E858280011122CCD0
:100780004EC606CE26CA4AC82E84B289EF00D017BC
:1007900029C533093401A944639909003DA0050422
:1007A0003735011001226302240383450400E398D6
:1007B00095FEB54537350110F520834504003735E2
:1007C00001100504C520E31224FF4E85F240624467
:1007D000D2444249B249056182807D55C5BF0000BF
:1007E0005D7106C012C216C41AC61EC82ACA2ECC13
:1007F00032CE36D03AD23ED442DC46DEF2C0F6C229
:10080000FAC4FEC6F322103416D6F322203416D8CA
:10081000F322003016DA732520348A856D2AB2520D
:1008200073901234C25273902234D25273900230B9
:1008300082401242A2423243C2435245E2457246CE
:1008400082561257A2576258F258064E964E264FBD
:10085000B64F616173002030AA8711C5584D01451C
:10086000D98DCCCF82807D558280AA8715C917F794
:10087000FF0F0327677FB355B7021307000858C55A
:100880000145FD1513D785001377F70FD8C393F5EE
:10089000F50F8CC31307600C98C70D47D8C782802B
:1008A0007D55828001C95C4993F70702EDDF0CC1D9
:1008B000014582807D55828001C95C49858BF5DFC9
:1008C00008411375F50F82801305F00F8280B7C7BA
:1008D000000203A787FF83A7C7FF411106C622C4F2
:1008E00026C2BA86B7C5000203A785FF83A7C5FF46
:1008F000BA87732600B0E389E6FEB7C6000203A4F8
:1009000086FF83A4C6FF1D8C732700B0E369A4FE95
:10091000B304C740B3F58402228681461395F500DF
:10092000C581F12433D78402B2402244924441016C
:100930003E073A9582804111054506C6493FB240BF
:1009400013054006410161B7411122C42A841725CD
:1009500000001305A59406C6EF00807AA28517252E
:1009600000001305E5945925F325103417250000E0
:1009700013050595A52DF325303417250000130523
:100980002595AD2501A0411122C42A841725000018
:100990001305059506C6EF00A076A2851725000071
:1009A00013050591A125F325103417250000130523
:1009B00025912D2DF32530342244B2401725000017
:1009C0001305059141011DA5B7B7C40493870740DE
:1009D00023A2F180828041119317450106C622C4EB
:1009E000D183635105022D476383E7048A07138788
:1009F0004182BA979C4391C38297B24022440145F9
:100A00004101828029462A87AE86636BF6008A07F9
:100A10001386C184B2979C43EDD3B6853A85E9BF6E
:100A200097070000938787F2B6853A85F1B7F327D9
:100A300040F13707200CB2071107BA978043C1472E
:100A4000E3ED87FA1317240093878187BA979C43B5
:100A500091C38297F32740F13707200CB2071107A3
:100A6000BA9780C359BF411106C622C4E935AA8787
:100A700013844180B7050300372501101CC0E93BF2
:100A8000F1659385052037350110C5331726000021
:100A90001306468697250000938585861725000056
:100AA0001305C586A123972500009385A5881725E2
:100AB0000000130565881D2B0C4017250000130549
:100AC000E5882D2397060000938646E89387C18426
:100AD0001387818794C39107E39EE7FE1707000001
:100AE0001307A7EA938781879386C18B98C39107E1
:100AF000E39EF6FE938741829386C18498C3910753
:100B0000E39ED7FE3706000C8146B728000C054847
:100B10004545F32740F19E07C6978C433317D8000D
:100B20001347F7FF6D8F98C3232006008506110633
:100B3000E391A6FEF32740F13707200CB240224490
:100B4000B207BA9723A00700410182808280828089
:100B500082803303B502131E0601E206B70E004081
:100B6000336EDE00B14623A0DE00A205336EAE0078
:100B7000CE073306C302B7060200336EBE00D98F1C
:100B800093860610DD8E23AACE0197170010938757
:100B9000678023ACDE00B70500403E9683860700E1
:100BA0008507D4C5E31CF6FE0A074297B706004046
:100BB0008327080011089CCAE31CE8FE85479CC2F5
:100BC000370700405C43898BF5DF2320070081470E
:100BD000171700101307077CB7060040DCCE9052B1
:100BE00085070507A30FC7FEE39A17FF8280AA882F
:100BF000AE873288368546836396062097260000A6
:100C00009386460B63FFC50A41676375E60A1307BF
:100C1000F00F3337C7000E073355E600AA9683C698
:100C20000600130500023697B306E540630BE500A6
:100C3000B395D70033D7E8003318D600D98D339356
:100C4000D80093580801B3D6150313160801418242
:100C50009357030133F715033685B305D6024207D0
:100C6000D98F63FCB700C2971385F6FF63E70701CE
:100C700063F5B7001385E6FFC2978D8F33F717032F
:100C8000420313530301B3D71703420733636700CB
:100C9000B306F6023E86637BD30042931386F7FFCA
:100CA000636603016374D3001386E7FF4205518D29
:100CB00081455DA8370500014147E36FA6F4614710
:100CC000A1BF01E605473358C7024167637FE808C3
:100CD0001307F00F6373070121453357A800BA9635
:100CE00003C70600130600022A97B306E640631501
:100CF000E608B38707418545935808011316080194
:100D0000418213570301B3F61703B3D71703C20683
:100D1000558F330EF6023E85637CC70142971385DB
:100D2000F7FF636707016375C7011385E7FF429704
:100D30003307C741B37717034203135303013357F4
:100D40001703C20733E36700B306E6023A86637B04
:100D5000D30042931306F7FF636603016374D30065
:100D60001306E7FF4205518D828037070001414598
:100D7000E365E8F6614595B73318D80033D5E70049
:100D80003393D800B397D70033D7E80093580801BE
:100D90003366F7003377150393170801C183935522
:100DA00006013355150342074D8FB386A702AA8566
:100DB000637CD70042979305F5FF6367070163756E
:100DC000D7009305E5FF4297B306D74033F71603E4
:100DD00042064182B3D6160342073385D702B36772
:100DE000C700368763FCA700C2971387F6FF63E747
:100DF000070163F5A7001387E6FFC297C205898F35
:100E0000D98DDDBD63E2D514416763FFE6021307A8
:100E1000F00FB335D7008E0533D5B6001727000085
:100E2000130747E92A9703470700130500022E9787
:100E3000B305E5406311E5020545E3E7F6F233B596
:100E4000C800134515000DB737070001C145E3E59C
:100E5000E6FCE145D1B73358E600B396B6003368F7
:100E6000D80033D3E700935E0801B376D303B3977A
:100E7000B70033D7E800331EB6003366F700931788
:100E80000801C183135706013353D303C206558F9C
:100E9000338F67021A85637CE70142971305F3FFDE
:100EA000636707016375E7011305E3FF42973307A3
:100EB000E741B376D7033357D703C2063383E7023C
:100EC00093170601C183D58F3A8663FC6700C297EA
:100ED0001306F7FF63E7070163F567001306E7FFF3
:100EE000C2974205C16E518D9386FEFF13560E01C7
:100EF00013580501B38767403373D500B376DE001E
:100F0000330ED302B306D80213570E013303C302C4
:100F100036931A973308C8026373D70076989356AE
:100F20000701369863E00703E39407D9C167FD170B
:100F30007D8F4207337EFE00B398B80072978145DB
:100F4000E3F4E8E27D15ADB38145014531BDAA85E5
:100F5000814601460145B5AE411122C426C217247F
:100F60000000130464F4972400009384E4F3058CD8
:100F700006C6098411E4B2402244924441018280B1
:100F80007D1493172400A6979C438297E5B74111DF
:100F900022C426C217240000130404F19724000081
:100FA000938484F0818C4AC006C689840149631504
:100FB000990217240000130424EF9724000093845F
:100FC000A4EE818C89840149631D9900B2402244BA
:100FD00092440249410182801C4005091104829714
:100FE000F9B71C40050911048297F9BF5D7122D43D
:100FF00006D62A842EDA32DC36DEBAC0BEC2C2C4BD
:10100000C6C603A5818011C51C4D81E72AC6712B78
:1010100032450C455418228636CEEF001027B250C8
:10102000225461618280011126CA4AC806CE22CCB0
:101030004EC652C4AA842E8901C51C4D91E3B52326
:101040009C4C804499E326858D2397270000938745
:1010500067D8631CF402C0408357C400A18BB1C79A
:101060001C48A1C7FD59294A1C4483450900FD17A6
:10107000B1E91CC463DE07062286A94526857920CE
:10108000FD576308F502294535A09727000093878F
:1010900067D66314F4008044C1B797270000938794
:1010A00067D1E31BF4FAC04445BFA2852685392ADF
:1010B00055D97D55F2406244D2444249B249224A50
:1010C000056182801CC4050963D70700184C63CBF7
:1010D000E700638945011C401387170018C023806F
:1010E000B70059B7228626851520E31F35F7D1B7FB
:1010F0001C401387170018C029472380E70061B7F9
:10110000AA8503A5818005B76FF0AFE1011122CC5C
:1011100026CA4AC806CE4EC6AA842E89328401C584
:101120001C4D91E35921972700009387A7CA6319A3
:10113000F406C0401C4C1CC48357C400A18BC9C317
:101140001C48BDCF1C4808409379F90F1379F90F5B
:101150001D8D5C486346F500A2852685152E2DE57C
:101160001C440505FD171CC41C401387170018C03C
:10117000238037015C486389A7008357C400858BAF
:1011800081CBA9476316F900A285268511260DEDAE
:10119000F2406244D244B2494A85424905618280A4
:1011A00097270000938707C56314F400804459B75C
:1011B00097270000938707C0E31EF4F6C0449DBF45
:1011C000A285268521203DDD7D59D9B7411122C454
:1011D00026C24AC006C683A481802A892E8489C477
:1011E0009C4C99E32685D12697270000938787BEDC
:1011F0006317F402C0408317C4001397070193F6E6
:1012000087004183ADEA9376070195EA25472320BD
:10121000E90093E707042316F4007D5571A897278A
:101220000000938727BD6314F4008044E9B7972733
:101230000000938727B8E310F4FCC0446DBF118B06
:101240000DC74C5889C9930744046384F5004A8547
:101250008525232A04028357C4002322040093F720
:10126000B7FD2316F4001C481CC08357C40093E745
:1012700087002316F4001C4881EF8357C40013072E
:10128000002093F707286385E700A2854A85F9299E
:101290008317C4001397070193F6170041839DC27B
:1012A000544823240400B306D04014CC144801450C
:1012B00081E61377070831FFB24022449244024985
:1012C0004101828093762700014691E2504810C484
:1012D000F1BFAA88138581811C4191EF1737001057
:1012E0001307478218C113050000BA8709C51C41BE
:1012F0002324F708BA87D8437D487D556346E80420
:10130000638D080203A887086300080413152700EB
:10131000429510C10323081005463316E6003363D7
:10132000C300232068102320D50889466397D8007E
:1013300083264810558E2322C810930617000A07EB
:10134000D4C3BA978CC70145828083D7C5000111E9
:1013500022CC26CA06CE4AC84EC613F78700AA84F6
:101360002E8475E3D8416347E000B8416344E00050
:10137000014575A858546DDF856603A90400F58FF3
:1013800023A00400A5CF68488357C400918B99C758
:101390005C401D8D5C5899C33C401D8D5C540C50C5
:1013A0002A86814626858297FD570357C400631D10
:1013B000F5009440F54763E3D708B7074020850759
:1013C000B3D7D700858BBDCB1C48232204001CC09B
:1013D00085677D8F19C7FD576314F5009C4091E325
:1013E00068C84C5823A02401C1D5930744046384E2
:1013F000F50026857529232A04029DBF0C508546D9
:10140000014626850297FD57E310F5F89C40ADDFB5
:1014100075476385E70059476395E70023A02401DA
:1014200081BF8357C40093E707042316F400F240FA
:101430006244D2444249B24905618280136707047D
:101440002316E400EDB783A90501E38309F203A99C
:1014500005008D8B23A0350133093941014791E304
:10146000D84918C4E35620F11C540C50CA864E8645
:1014700026858297634AA0008357C4007D5593E771
:1014800007042316F40065B7AA993309A940D9BF08
:101490009C49B9CF011122CC06CE2A8411C51C4D1E
:1014A00081E72EC61922B2459727000093878792BD
:1014B000639BF5004C408397C50095C72285624425
:1014C000F240056159B5972700009387A79263946E
:1014D000F5000C44CDB7972700009387A78DE39CB8
:1014E000F5FC4C44C9BFF24062440145056182806D
:1014F00001458280411122C406C62A842316B50004
:101500002317C500232005002322050023240500FE
:101510002322050623280500232A0500232C050085
:10152000214681451305C505C524971700009387FB
:10153000C7815CD097170000938727841CD4971726
:101540000000938767885CD4971700009387278BE8
:10155000B24000D01CD8224441018280970500008F
:10156000938545F391A2411126C213068006938408
:10157000F5FFB384C4024AC02E8922C406C69385EF
:101580004407F1262A8419C92320050023222501B6
:10159000310508C4138684068145BD24B2402285E6
:1015A000224492440249410182801C4DADE3411125
:1015B00022C406C697070000938787FA1CD5232408
:1015C0000504232605042328050483A701812A8412
:1015D0006314F50085471CCD22851D2848C022854F
:1015E000052808C422852D2048C44840014691455D
:1015F000113708440546A545F53D48440946C94507
:10160000D53D8547B2401CCC224441018280828076
:10161000411126C283A401819C4C4AC006C622C443
:101620002A8999E326855137938484048044DC40D9
:10163000FD1763D607009C40B1CF8440C5BF031798
:10164000C40031E7C1778507232204062320040064
:1016500023220400232404005CC423280400232A3A
:101660000400232C0400214681451305C405692A82
:10167000232A0402232C0402232404042326040422
:10168000B2402285224492440249410182801304DF
:10169000840679BF91454A85F93588C02A8451FD71
:1016A000B1472320F900E9BF797122D44AD04ECE48
:1016B00052CC5AC85EC606D626D256CA2A892E8A67
:1016C000130485048149054BFD5B0444832A4400CF
:1016D000FD1A63D00A0200406DF8B25022549254B1
:1016E0000259624AD24A424BB24B4E85F249456199
:1016F000828083D7C400637BFB008397E400638709
:101700007701A6854A85029AB3E9A90093848406E5
:10171000C1B75971CAD02E898395E500A2D4A6D24B
:1017200086D63284B68463DC05008317C90023A003
:10173000040093F707088DE39307004005A03000ED
:10174000112FE34405FE3247BD67F98F7977BA97C9
:1017500093B717009CC0CDB793070004B6501CC0C8
:1017600026549654065901456561828083D7C50089
:10177000011122CC06CE26CA4AC8898B2E8489CF75
:10178000930774041CC01CC885475CC8F2406244BF
:10179000D244424905618280740030002A89953F15
:1017A000A245AA844A85652201ED8317C40013F778
:1017B000072069FFF19B93E727002316F400C9B7C0
:1017C000970700009387C7D92324F9028357C400E1
:1017D00008C008C893E707082316F400A2475CC8AE
:1017E000B24789CF8315E4004A85512D01C983573B
:1017F000C400F19B93E717002316F4000355C400BF
:10180000C98C2316940059B73D432A876373C302DA
:101810009377F700BDEFADE5937606FF3D8ABA9664
:101820000CC34CC30CC74CC74107E36BD7FE11E296
:101830008280B306C3408A069702000096966780AE
:10184000A6002307B700A306B7002306B700A30529
:10185000B7002305B700A304B7002304B700A30310
:10186000B7002303B700A302B7002302B700A30108
:10187000B7002301B700A300B7002300B7008280A0
:1018800093F5F50F93968500D58D93960501D58D2B
:1018900061B7939627009702000096968682E780AC
:1018A00086FA9680C1171D8F3E96E374C3F8A5B7DC
:1018B000D1CD83A7C5FF011122CC06CE1384C5FF6D
:1018C00063D307003E942AC615251387C1811C43A4
:1018D000324581EB2322040000C36244F2400561DB
:1018E00039A5637DF4001040B306C4006396D700A9
:1018F0009443DC43B29614C05CC0F9BF3E87DC431E
:1019000099C3E37DF4FE14433306D700631F8600BA
:101910001040B29614C33306D700E390C7FC90433F
:10192000DC43B29614C35CC34DBF6375C400B147BA
:101930001CC165B71040B306C4006396D70094433A
:10194000DC43B29614C05CC040C341BF8280011129
:1019500026CA93843500F1984AC806CE22CC4EC6DA
:10196000A104B1472A8963F0F404B14463EFB402DF
:101970004A85AD2B9386C18198423A8431E0138425
:1019800001821C4089E781454A85512E08C0A68501
:101990004A857126FD5963183507B1472320F900A0
:1019A0004A85B12331A0E3D304FCB1472320F900D9
:1019B0000145F2406244D2444249B2490561828005
:1019C0001C40858F63CE07022D466376F6001CC04F
:1019D0003E9404C029A05C40631287029CC24A85E1
:1019E00039231305B4009307440061993307F54088
:1019F000E301F5FC3A94898F1CC065BF5CC3C5B791
:101A000022874040A5BF130435007198E30385FC8D
:101A1000B305A4404A852126E31D35FBBDBF1C4606
:101A2000FD171CC663DA0700184E63C5E700A94717
:101A30006394F5006FF08FED1C422E85138717001D
:101A400018C22380B7008280011122CC26CA4AC85E
:101A50004EC652C406CE2A89AE893284B304D6005B
:101A60007D5A63149400014509A8834504004E86FD
:101A70004A8575370504E31645FFF2406244D244B7
:101A80004249B249224A05618280357122CD26CB76
:101A90004AC94EC706CF52C556C35AC1DEDEE2DC84
:101AA000E6DAAA89AE843289368401C51C4D91E3F9
:101AB000ED3C971700009387E731639BF40C83A4F8
:101AC000490083D7C400A18BF5C79C48E5C793079D
:101AD0000002A304F1029307000302D22305F102DE
:101AE00022C6930B5002971A0000938AAA32054C23
:101AF000294B4A848347040099C36390770FB30C42
:101B00002441630D2401E6864A86A6854E852D3F35
:101B1000FD576304F51E9257E6973ED283470400B3
:101B2000638D071CFD571309140002C802CE3ECA7C
:101B300002CCA309010482D48345090015465685C9
:101B4000492EC2471304190059E913F7070109C7C1
:101B500013070002A309E10413F7870009C713075D
:101B6000B002A309E104834609001307A0026380C1
:101B7000E608F2474A848146254603470400930558
:101B80001400130707FD6379E60AB5CA3ECE85A89F
:101B900097170000938707266395F40083A48900B4
:101BA0000DB7971700009387E720E39CF4F083A418
:101BB000C90001BFA6854E85EFF04FE109D97D55DB
:101BC000FA406A44DA444A49BA492A4A9A4A0A4BCC
:101BD000F65B665CD65C0D618280050421BF33052F
:101BE00055413315AC00C98F3EC82289B1B7324781
:101BF00093064700184336C6634907023ACE0347A7
:101C000004009307E002631FF704034714009307DF
:101C1000A002631BF702B2470904138747009C43E5
:101C20003AC663C107023ECA35A83307E04093E7CE
:101C300027003ACE3EC8E1B7B38767032E848546B6
:101C4000BA9725BFFD57C5B7050402CA814681472B
:101C500025460347040093051400130707FD63742A
:101C6000E606F1F2834504000D4617150000130542
:101C7000E51A852411CD971700009387271A1D8D2B
:101C800093070004B397A700424505045D8D2AC859
:101C9000834504001946171500001305651813093C
:101CA00014002304B10235242DC19307000095E7E9
:101CB0004247B2471377071009CF91073EC69257A4
:101CC000D2973ED23DB5B38767032E848546BA9737
:101CD00049B79D07E19BA107D5B77800970600009B
:101CE0009386C6D626860C084E8597000000E7002E
:101CF0000000FD572A8AE314F5FC83D7C40093F74C
:101D00000704E39E07EA125565BD780097060000B8
:101D10009386C6D326860C084E85CD24D9BF4111A3
:101D200022C42A842E8523AA018006C6EFE01FA2C2
:101D3000FD576316F50083A7418191C31CC0B240D3
:101D4000224441018280411122C42E848395E50002
:101D500006C6292B634905007C48AA977CC8B24077
:101D60002244410182808357C4007D777D17F98F1B
:101D70002316F400EDB783D7C500011122CC26CA83
:101D80004AC84EC606CE93F70710AA842E8432891D
:101D9000B68991C78395E500894601462922835774
:101DA000C4007D777D17F98F8315E4002316F400B6
:101DB0006244F240CE864A86B24942492685D244E0
:101DC00005613DA8411122C42E848395E50006C615
:101DD000D928FD570357C400631BF500FD77FD1795
:101DE000F98F2316F400B2402244410182808567B6
:101DF000D98F2316F40068C8FDB78395E5003DA090
:101E0000411122C42A842E85B285368623AA0180F8
:101E100006C6EFE0BF96FD576316F50083A7418124
:101E200091C31CC0B240224441018280411122C4AE
:101E30002A842E8523AA018006C6EFE05F8CFD5719
:101E40006316F50083A7418191C31CC0B2402244B0
:101E500041018280411122C42A842E85B28523AAA1
:101E6000018006C6EFE05F8AFD576316F50083A781
:101E7000418191C31CC0B240224441018280411182
:101E800022C42A842E8523AA018006C6EFE07F891A
:101E9000FD576316F50083A7418191C31CC0B24072
:101EA000224441018280411122C42A842E85B285B8
:101EB000368623AA018006C6EFE0FF86FD5763162B
:101EC000F50083A7418191C31CC0B2402244410167
:101ED000828093F5F50F2A966314C5000145828030
:101EE00083470500E38DB7FE0505FDB7828082803C
:101EF000797152CC9C493A8A984522D426D24ECE4A
:101F000056CA06D64AD05AC85EC6AA892E84B2845A
:101F1000B68A63D3E700BA879CC00347340419C369
:101F200085079CC01C4093F7070281C79C40890726
:101F30009CC00329040013796900631A0900130B7C
:101F40009401FD5B5C449840998F634CF90483478E
:101F50003404B336F0001C4093F70702A5EB1306D8
:101F60003404D6854E85029AFD576303F5041C4060
:101F700011469840998B544481446397C700B384B9
:101F8000E64063D3040081441C4418486354F700BE
:101F9000998FBE94014969047D5B639824050145CE
:101FA00009A885465A86D6854E85029A631E750114
:101FB0007D55B250225492540259F249624AD24A93
:101FC000424BB24B456182800509ADBF3307D40057
:101FD00013060003A301C7040347540493871600A4
:101FE000A2978906A381E7049DBF85462286D685F0
:101FF0004E85029AE30E65FB050945B7797122D437
:1020000026D24AD04ECE06D652CC56CA5AC803C89B
:10201000850193078007AA842E843289B68963EEEE
:102020000701930720069386350463ED07016305D6
:10203000081C93078005630AF812930A24042301FD
:10204000040515A89307D8F993F7F70F5546E366EB
:10205000F6FE171600001306A6DF8A07B2979C4308
:10206000B29782871C43938A2504938647009C433A
:1020700014C32381F50485475DA29C41084313F6F0
:102080000708930545000DC21C410CC363D8070027
:102090001307D002B307F040A301E40417160000B1
:1020A000130686D82948A1A013F607041C410CC3C7
:1020B00071DEC207C187D9BF90411C431375060862
:1020C0009385470001C50CC39C4339A013760604D1
:1020D0000CC37DDA83D707001307F006171600003C
:1020E000130686D46304E80E2948A301040458406B
:1020F00018C4634507000C40ED990CC099E3B68AFB
:1021000019CFB68A33F70703FD1A32970347070042
:102110002380EA003E87B3D70703E37507FFA14793
:10212000631EF8001C40858B91CB58401C4863C748
:10213000E70093070003A38FFAFEFD1AB38656410A
:1021400014C84E87CA867000A285268555337D5AED
:10215000631B450D7D55B250225492540259F249E9
:10216000624AD24A424B45618280A3820505171616
:102170000000130666CB0C40084313F805081C4109
:102180001105630D080208C313F7150001C793E595
:1021900005020CC04148B1FB18401377F7FD18C089
:1021A000A9B79C4193E707029CC193078007A3024C
:1021B000F40417160000130666C875BF13F805046B
:1021C00008C3E30308FCC207C1837DBF214831BFB8
:1021D00090411C43CC4913780608138547006306D9
:1021E000080008C39C438CC301A808C313760604E7
:1021F0009C4375DA2390B70023280400B68A91B770
:102200001C43D04181459386470014C383AA07002D
:102210005685C13101C53305554148C05C401CC8D5
:10222000A301040439BF14485686CA8526858299BD
:10223000E30245F31C40898B8DE7B2474844E35CD9
:10224000F5F03E8509BF85465686CA852685829962
:10225000E30265F1050A5C443247998FE345FAFED3
:10226000E9BF014A930A94017D5BF5B7411122C48D
:102270002A842E85B285368623AA018006C6EFE021
:10228000CFCAFD576316F50083A7418191C31CC0D7
:08229000B240224441018280AA
:102298005472617020696E20457863657074696F47
:1022A8006E0D00004D43415553453A203078256C5A
:1022B800780D0A004D45504320203A203078256C8F
:1022C800780D0A004D5456414C203A203078256C40
:1022D800780D0A005472617020696E20496E746529
:1022E80072727570740D000032313A31343A3238F6
:1022F800000000004F63742020392032303236004D
:1023080048756D6D696E67426972642053444B204D
:102318004275696C642054696D653A2025732C20D8
:1023280025730D0A00000000494C4D00446F776E7C
:102338006C6F6164204D6F64653A2025730D0A0047
:10234800435055204672657175656E637920256C1A
:102358007520487A0D0A00000A3D3D3D3D3D204C60
:10236800654E65742D3520494E5438204861726495
:102378007761726520496E666572656E63652028AF
:102388004252414D205765696768747329203D3D65
:102398003D3D3D00436F72653A2052563332492025
:1023A800284532303329202B20434E4E2041636389
:1023B800656C657261746F72000000005175616E22
:1023C800742073686966743A2025640A0000000066
:1023D8005465737420696D6167653A204D4E4953A1
:1023E80054207265616C2064696769742025640AE9
:1023F80000000000576569676874733A2070726559
:102408006C6F6164656420746F204252414D207680
:1024180069612024726561646D656D680000000063
:10242800434E4E2056455253494F4E204F4B0000C5
:10243800496E697469616C697A696E67207465733D
:102448007420646174612E2E2E000000496E697438
:1024580020646F6E652E00004552524F523A204359
:102468004E4E2056455253494F4E20213D2030783C
:1024780030303031303030302C206272696467651A
:10248800206E6F7420776F726B696E672100000091
:10249800433120646F6E6500533220646F6E6500AF
:1024A800433320646F6E6500533420646F6E65009B
:1024B800433520646F6E652028313230206F757483
:1024C8007075747329000000463620646F6E6500CD
:1024D8000A50726564696374656420636C61737320
:1024E8003A2025640A00000046696E616C206F7509
:1024F800747075742073636F7265733A000000001E
:102508002020636C6173735B25645D203D20256426
:102518000A0000000A3D3D3D3D3D2042656E63686E
:102528006D61726B20526573756C74203D3D3D3D45
:102538003D000000546F74616C206379636C6573AF
:102548003A2025750A000000546F74616C206D757F
:102558006C206E756D3A2025750A0000546F746101
:102568006C206C6F6164206E756D3A2025750A00C9
:10257800546F74616C2073746F7265206E756D3A58
:102588002025750A00000000546F74616C20737474
:10259800616C6C206E756D3A2025750A000000008C
:1025A800435055204672657175656E63793A2025EA
:1025B8007520487A0A000000546F74616C207469B1
:1025C8006D653A202575206D730A00003D3D3D3D3F
:1025D8003D2042656E63686D61726B20446F6E6565
:1025E800203D3D3D3D3D0A00590200000A0B000018
:1025F8009B0000007C000000470500004513000018
:10260800D102000008FDFFFF530400007EFAFFFF1F
:1026180093090000FC070000B5FFFFFFE20000007F
:102628002107000044FBFFFF85FDFFFFED070000C9
:102638004E04000041010000C6070000D8F3FFFF68
:1026480094FEFFFF04020000EA0600002A030000CF
:1026580077FEFFFF37FCFFFFC8FDFFFF0600000005
:10266800F6050000B1FEFFFFC205000094FEFFFF63
:10267800DF0700003B040000E804000039FFFFFF0B
:1026880099060000E1FCFFFF3A010000060900007E
:1026980071050000BFFDFFFF15FDFFFF3FFDFFFFB8
:1026A800BA000000E2FDFFFFE1FBFFFF7D0900002B
:1026B80082FEFFFF670900003FFAFFFFCD0300001D
:1026C80055FCFFFF1A00000096010000EA06000012
:1026D8000DF9FFFFFAFEFFFF680A00000102000083
:1026E800BBFEFFFFC9060000240700007B010000B5
:1026F800F2FDFFFF09FFFFFF5DFCFFFFDC030000A9
:102708004B050000410600003B040000C801000022
:10271800F601000026FFFFFFB5FCFFFFAC0000003C
:1027280073FDFFFF56FCFFFF79000000060700005D
:102738006FFCFFFFB1FFFFFF3A0100004F020000EE
:1027480043FDFFFF9EFCFFFF940100000200000014
:10275800C90A0000E1FAFFFFD3FBFFFFA1FEFFFF5C
:10276800B90100001A0000001903000042FFFFFF32
:102778003BFEFFFF7204000079FCFFFFA703000087
:102788006B080000400800007800000034010000D9
:102798001E050000190300002DFEFFFF9B0000002E
:1027A80064060000B4FEFFFF1CFEFFFFC6FCFFFF2F
:1027B800FD05000044FDFFFF5F02000006FDFFFF6E
:1027C800E80100004CFAFFFFA2FFFFFF9D00000098
:1027D800F3FFFFFFB303000097FCFFFFBBFDFFFF04
:1027E800EF070000E3060000510C00008DFDFFFF1D
:1027F80040FDFFFF220100000B010000C0FDFFFFAC
:1028080003FDFFFFEEF8FFFF6A060000F203000079
:10281800CBFBFFFFAEFCFFFF24070000EFFDFFFF2F
:1028280000000000000000000000000000000000A0
:102838000000000000000000000000000000000090
:102848000000000000000000000000000000000080
:102858000000000000000000000000000000000070
:102868000000000000000000000000000000000060
:102878000000000000000000000000000000000050
:102888000000000000000000000000000000000040
:102898000000000000000000000000000000000030
:1028A80000112F2F2F1081552F000000000000006D
:1028B80000000000000000000000004B99D9FDFD59
:1028C800FDD7F6FDFD00000000000000000000003C
:1028D80000000000238EF4FCFDFDFDFDFDFDFDFD67
:1028E800FD000000000000000000000000000000E3
:1028F8003FFDFDFDFDFDFDFDD5AAAAAAAA00000029
:1029080000000000000000001484480039EEE3EEE7
:10291800A87C45140B000000000000000000000027
:102928000000000BCEFD4E000020001E020000003B
:10293800000000000000000000000000000006B1D8
:10294800FD840A00000000000000000000000000F4
:102958000000000000000000000C85FDE90F0000E9
:10296800000000000000000000000000000000005F
:1029780000000000005CFDDF1C00000000000000FB
:10298800000000000000000000000000000000003F
:102998000096FDAE000000000000000000000000EE
:1029A80000000000000000000000000000EAFDF642
:1029B8007F3100000000000000000000000000005F
:1029C800000000000000000000FFFDFDFDFB935B20
:1029D80079552A2A551C000000000000000000005C
:1029E80000000000008BFDFDFDFDFDFDFDFDFDFD72
:1029F800FDE8A80000000000000000000000000042
:102A0800000335DADEFBFDFDFDFDFDFDFDFDFC7C73
:102A180000000000000000000000000000000000AE
:102A2800004348C8FDFDFDFDFDFDFDAF00000000B1
:102A38000000000000000000000000000000007816
:102A4800FDF99833A4FDFDAF000000000000000070
:102A5800000000000000000000000032FDFDFDBC89
:102A6800FCFDFD94000000000000000000000000D4
:102A78000000000000000009A7FDFDFDFDFAAF0BF6
:102A8800000000000000000000000000000000003E
:102A98000000000017B4E7FDDD8000000000000022
:102AA800000000000000000000000000000000001E
:102AB80000005D9516000000000000000000000006
:102AC80000000000000000000000000000000000FE
:102AD80000000000000000000000000000000000EE
:102AE80000000000000000000000000000000000DE
:102AF80000000000000000000000000000000000CE
:102B080000000000000000000000000000000000BD
:102B180000000000000000000000000000000000AD
:102B2800000000000000000000000000000000009D
:102B3800EEFAFFFFC4FFFFFF94FFFFFFF500000060
:102B4800C5090000F5FEFFFF06FBFFFF1AFBFFFFAC
:102B580008FFFFFF02F5FFFF62050000F5FDFFFF1C
:102B68009B0A0000D5FEFFFF6EFAFFFF3008000049
:102B780056FCFFFF42FFFFFF75FAFFFF2E03000020
:102B8800B700000071080000E7070000CA0900004C
:102B98008AFFFFFF7F0400006300000027F7FFFFA4
:102BA800D00900008E0E000057FEFFFF6CFAFFFFF1
:102BB8003807000021FEFFFFF30200004FFFFFFF70
:102BC8005701000053FEFFFFA302000004060000A7
:102BD800C5090000B3070000510000007AFBFFFFA1
:102BE80075000000CF0B0000AFF9FFFFCE0000001A
:102BF8004CFAFFFF12030000C10800004BFFFFFF63
:102C08008E02000066F9FFFF3D000000FCFAFFFF9E
:102C1800C4FFFFFF70FBFFFFDFF8FFFF1202000099
:102C28008F03000057060000BD060000570A000089
:102C3800B500000010030000E400000092F8FFFF58
:102C480043FAFFFF7605000073FEFFFF87FFFFFFD3
:102C58006CF6FFFF17FDFFFF6605000018F9FFFF80
:102C680075FAFFFF59F8FFFF010500002DFCFFFF73
:102C7800ADFDFFFF69FDFFFF50030000A7F2FFFF56
:102C8800B9F4FFFF13FDFFFF4B010000FFFCFFFF3E
:102C98009FFEFFFF360B000001FDFFFFC9F4FFFF99
:102CA800EB090000EF000000000102020303030328
:102CB80004040404040404040505050505050505C4
:102CC80005050505050505050606060606060606A4
:102CD800060606060606060606060606060606068C
:102CE8000606060606060606070707070707070774
:102CF800070707070707070707070707070707075C
:102D0800070707070707070707070707070707074B
:102D1800070707070707070707070707070707073B
:102D28000707070707070707080808080808080823
:102D3800080808080808080808080808080808080B
:102D480008080808080808080808080808080808FB
:102D580008080808080808080808080808080808EB
:102D680008080808080808080808080808080808DB
:102D780008080808080808080808080808080808CB
:102D880008080808080808080808080808080808BB
:102D980008080808080808080808080808080808AB
:102DA80008080808080808080000000000000000DB
:102DB800000000000000000000000000000000000B
:102DC80000000000000000000000000000000000FB
:102DD80000000000000000000000000000000000EB
:102DE80000000000000000000000000000000000DB
:102DF80000000000000000000000000000000000CB
:102E08000000000000000000232D302B20000000EF
:102E1800686C4C00656667454647000030313233C0
:102E280034353637383941424344454600000000BE
:102E38003031323334353637383961626364656628
:102E48000000000018F2FFFF2EF2FFFFEEF1FFFF77
:102E5800EEF1FFFFEEF1FFFFEEF1FFFF2EF2FFFFB5
:102E6800EEF1FFFFEEF1FFFFEEF1FFFFEEF1FFFFE6
:102E780084F3FFFF6CF2FFFF56F3FFFFEEF1FFFF55
:102E8800EEF1FFFFB4F3FFFFEEF1FFFF6CF2FFFF7F
:0C2E9800EEF1FFFFEEF1FFFF5EF3FFFF25
:102EA40000000000D02D0080F02D0080B02D0080A7
:102EB400000000000000000000000000000000000E
:102EC40000000000000000000000000000000000FE
:102ED40000000000000000000000000000000000EE
:102EE40000000000000000000000000000000000DE
:102EF40000000000000000000000000000000000CE
:102F0400903B009000B4C404000000900000000056
:042F14000000009029
:040000058000000077
:00000001FF
